:020000040800F2
:100000000004002005010008290100082B01000858
:100010002D0100082F010008310100080000000038
:100020000000000000000000000000003301000894
:100030003501000800000000370100083901000800
:100040003B0100083B0100083B0100083B010008A0
:100050003B0100083B0100083B0100083B01000890
:100060003B0100083B0100083B0100083B01000880
:100070003B0100083B0100083B0100083B01000870
:100080003B0100083B0100083B0100083B01000860
:100090003B0100083B0100083B0100083B01000850
:1000A0003B0100083B0100083B0100083B01000840
:1000B0003B0100083B0100083B0100083B01000830
:1000C0003B0100083B0100083B0100083B01000820
:1000D0003B0100083B0100083B0100083B01000810
:1000E0003B0100083B0100083B010008DFF810D08D
:1000F00000F02EF8004800477D020008AFF30080B2
:10010000000400200D488047DFF83400016841F406
:10011000E0210160BFF34F8FDFF82800DFF82810DF
:1001200001600A4800477047FEE7FEE7FEE7FEE78A
:10013000FEE7FEE7FEE7FEE7FEE7FEE72701000831
:1001400024ED00E00CED00E00003FA05ED000008EE
:10015000064C074D06E0E06840F0010394E8070014
:1001600098471034AC42F6D3FFF7C4FF30030008C1
:100170004003000870B5194C83202060002565609D
:10018000A56017486060012000F02EF86168084300
:10019000606014490D60086840F002000860206843
:1001A00040F48030206020688003FCD5206840F057
:1001B0008070206020688001FCD5606820F003001A
:1001C0006060606840F002006060606840F4800039
:1001D0006060086840F01000086070BD00100240C8
:1001E00000841D0000200240012804D0B0F5807F6B
:1001F00003DD012102E000202CE00021802801DD48
:10020000012200E000220A44402801DD012100E033
:1002100000210A44102801DD012100E000210A44E8
:10022000082801DD012100E000210A44042801DD45
:10023000012100E000210A44022801DD012100E043
:1002400000211144012801DD012000E000200844C4
:10025000C01D0001702800D10020704702E008C8CE
:10026000121F08C1002AFAD170477047002001E030
:1002700001C1121F002AFBD170470000FFF77AFF6F
:10028000002404E0E1B2044800F038F8641C402C7B
:10029000F8DB00BFFEE7000040030008F0B44FF0B9
:1002A00000024FF0000330F9124002FB01F505F0A7
:1002B0003F051D4E36F9157007FB04F73B4402F16C
:1002C0000102402AEFD11846F0BC7047F0B44FF05D
:1002D00000024FF0000330F9124002FB01F505F077
:1002E0003F05124E36F9157007FB04F73B4402F147
:1002F0000102402AEFD11846F0BC70472DE9F043C7
:1003000006460F46FFF7CAFF044630463946FFF758
:10031000DDFF804684FB044588FB088905EB090066
:10032000BDE8F00300BD0000C00300084004000861
:10033000C004000800000020000400006C02000857
:10034000EE0E780D8A0B4E09F506B304BA0235019C
:10035000460001006D007F0121032F057A07D109B6
:10036000000CD70D2D0FE50FEE0F490F040E390CC1
:10037000120ABD076E055703A7018300040035006C
:10038000120188027604B2060B094D0B460DCB0E06
:10039000BA0FFF0F930F810EDF0CD10A86082F06CC
:1003A00000042902D3001B001200B700FC01C703A0
:1003B000EE054308920AA90C590E7D0FFC0FCB0FD6
:1003C000FF7F627F8A7D7D7A4276E3706E6AF26299
:1003D000825A34511D47573CFC302825F9188C0CA3
:1003E000000074F307E7D8DA04CFA9C3E3B8CCAEB2
:1003F0007EA50E9D92951D8FBE89838576829E80F7
:1004000000809E8076828385BE891D8F92950E9D89
:100410007EA5CCAEE3B8A9C304CFD8DA07E774F35E
:1004200000008C0CF9182825FC30573C1D4734512E
:10043000825AF2626E6AE37042767D7A8A7D627FCA
:1004400000008C0CF9182825FC30573C1D4734510E
:10045000825AF2626E6AE37042767D7A8A7D627FAA
:10046000FF7F627F8A7D7D7A4276E3706E6AF262F8
:10047000825A34511D47573CFC302825F9188C0C02
:10048000000074F307E7D8DA04CFA9C3E3B8CCAE11
:100490007EA50E9D92951D8FBE89838576829E8056
:1004A00000809E8076828385BE891D8F92950E9DE9
:1004B0007EA5CCAEE3B8A9C304CFD8DA07E774F3BE
:04000005080000ED02
:00000001FF
